{
  "contractName": "Contacts",
  "abi": [
    {
      "inputs": [
        {
          "internalType": "uint256",
          "name": "",
          "type": "uint256"
        }
      ],
      "name": "contacts",
      "outputs": [
        {
          "internalType": "uint256",
          "name": "id",
          "type": "uint256"
        },
        {
          "internalType": "string",
          "name": "name",
          "type": "string"
        },
        {
          "internalType": "string",
          "name": "phone",
          "type": "string"
        },
        {
          "internalType": "address payable",
          "name": "user",
          "type": "address"
        }
      ],
      "stateMutability": "view",
      "type": "function",
      "constant": true
    },
    {
      "inputs": [],
      "name": "count",
      "outputs": [
        {
          "internalType": "uint256",
          "name": "",
          "type": "uint256"
        }
      ],
      "stateMutability": "view",
      "type": "function",
      "constant": true
    },
    {
      "inputs": [
        {
          "internalType": "uint256",
          "name": "_id",
          "type": "uint256"
        },
        {
          "internalType": "string",
          "name": "_name",
          "type": "string"
        },
        {
          "internalType": "string",
          "name": "_phone",
          "type": "string"
        },
        {
          "internalType": "address payable",
          "name": "_user",
          "type": "address"
        }
      ],
      "name": "createContact",
      "outputs": [],
      "stateMutability": "nonpayable",
      "type": "function"
    },
    {
      "inputs": [
        {
          "internalType": "uint256",
          "name": "_id",
          "type": "uint256"
        }
      ],
      "name": "getContact",
      "outputs": [
        {
          "components": [
            {
              "internalType": "uint256",
              "name": "id",
              "type": "uint256"
            },
            {
              "internalType": "string",
              "name": "name",
              "type": "string"
            },
            {
              "internalType": "string",
              "name": "phone",
              "type": "string"
            },
            {
              "internalType": "address payable",
              "name": "user",
              "type": "address"
            }
          ],
          "internalType": "struct Contacts.Contact",
          "name": "",
          "type": "tuple"
        }
      ],
      "stateMutability": "view",
      "type": "function",
      "constant": true
    }
  ],
  "bytecode": "0x60806040526000805534801561001457600080fd5b506107e6806100246000396000f3fe608060405234801561001057600080fd5b506004361061004c5760003560e01c806306661abd14610051578063bd401f6e1461006d578063e0f478cb14610082578063e6505e1e146100a5575b600080fd5b61005a60005481565b6040519081526020015b60405180910390f35b61008061007b3660046104d2565b6100c5565b005b61009561009036600461055e565b61015a565b60405161006494939291906105bd565b6100b86100b336600461055e565b61029b565b6040516100649190610602565b6040805160808101825285815260208082018681528284018690526001600160a01b03851660608401526000888152600192839052939093208251815592519192919082019061011590826106f0565b506040820151600282019061012a90826106f0565b5060609190910151600390910180546001600160a01b0319166001600160a01b0390921691909117905550505050565b60016020819052600091825260409091208054918101805461017b90610667565b80601f01602080910402602001604051908101604052809291908181526020018280546101a790610667565b80156101f45780601f106101c9576101008083540402835291602001916101f4565b820191906000526020600020905b8154815290600101906020018083116101d757829003601f168201915b50505050509080600201805461020990610667565b80601f016020809104026020016040519081016040528092919081815260200182805461023590610667565b80156102825780601f1061025757610100808354040283529160200191610282565b820191906000526020600020905b81548152906001019060200180831161026557829003601f168201915b505050600390930154919250506001600160a01b031684565b6102cf604051806080016040528060008152602001606081526020016060815260200160006001600160a01b031681525090565b6000828152600160208181526040928390208351608081019094528054845291820180549184019161030090610667565b80601f016020809104026020016040519081016040528092919081815260200182805461032c90610667565b80156103795780601f1061034e57610100808354040283529160200191610379565b820191906000526020600020905b81548152906001019060200180831161035c57829003601f168201915b5050505050815260200160028201805461039290610667565b80601f01602080910402602001604051908101604052809291908181526020018280546103be90610667565b801561040b5780601f106103e05761010080835404028352916020019161040b565b820191906000526020600020905b8154815290600101906020018083116103ee57829003601f168201915b5050509183525050600391909101546001600160a01b031660209091015292915050565b634e487b7160e01b600052604160045260246000fd5b600082601f83011261045657600080fd5b813567ffffffffffffffff808211156104715761047161042f565b604051601f8301601f19908116603f011681019082821181831017156104995761049961042f565b816040528381528660208588010111156104b257600080fd5b836020870160208301376000602085830101528094505050505092915050565b600080600080608085870312156104e857600080fd5b84359350602085013567ffffffffffffffff8082111561050757600080fd5b61051388838901610445565b9450604087013591508082111561052957600080fd5b5061053687828801610445565b92505060608501356001600160a01b038116811461055357600080fd5b939692955090935050565b60006020828403121561057057600080fd5b5035919050565b6000815180845260005b8181101561059d57602081850181015186830182015201610581565b506000602082860101526020601f19601f83011685010191505092915050565b8481526080602082015260006105d66080830186610577565b82810360408401526105e88186610577565b91505060018060a01b038316606083015295945050505050565b6020815281516020820152600060208301516080604084015261062860a0840182610577565b90506040840151601f198483030160608501526106458282610577565b606095909501516001600160a01b031660809490940193909352509192915050565b600181811c9082168061067b57607f821691505b60208210810361069b57634e487b7160e01b600052602260045260246000fd5b50919050565b601f8211156106eb57600081815260208120601f850160051c810160208610156106c85750805b601f850160051c820191505b818110156106e7578281556001016106d4565b5050505b505050565b815167ffffffffffffffff81111561070a5761070a61042f565b61071e816107188454610667565b846106a1565b602080601f831160018114610753576000841561073b5750858301515b600019600386901b1c1916600185901b1785556106e7565b600085815260208120601f198616915b8281101561078257888601518255948401946001909101908401610763565b50858210156107a05787850151600019600388901b60f8161c191681555b5050505050600190811b0190555056fea2646970667358221220848b92321551c640486b58c756fa73f801d9e95793669f42f2908f9c4f9e7a8864736f6c63430008130033",
  "immutableReferences": {},
  "source": "//SPDX-License-Identifier: MIT\r\npragma solidity ^0.8;\r\n\r\ncontract Contacts {\r\n    uint public count = 0; //state variable\r\n\r\n    struct Contact {\r\n        uint id;\r\n        string name;\r\n        string phone;\r\n        address payable user;\r\n    }\r\n\r\n    mapping(uint => Contact) public contacts;\r\n\r\n    function createContact(uint _id, string memory _name, string memory _phone, address payable _user) public {\r\n        contacts[_id] = Contact(_id, _name, _phone, _user);\r\n    }\r\n\r\n    function getContact(uint _id) public view returns (Contact memory) {\r\n        return contacts[_id];\r\n    }\r\n}",
  "sourcePath": "C:\\Users\\agusp\\OneDrive\\Documents\\learn_code\\blockchain\\ws-kafka-connector\\src\\contracts\\Contacts.sol",
  "compiler": {
    "name": "solc",
    "version": "0.8.19+commit.7dd6d404.Emscripten.clang"
  },
  "schemaVersion": "3.4.12",
  "updatedAt": "2023-03-20T16:58:33.767Z",
  "networkType": "ethereum",
  "devdoc": {
    "kind": "dev",
    "methods": {},
    "version": 1
  },
  "userdoc": {
    "kind": "user",
    "methods": {},
    "version": 1
  }
}