{
  "contractName": "Contacts",
  "abi": [
    {
      "inputs": [],
      "stateMutability": "nonpayable",
      "type": "constructor"
    },
    {
      "inputs": [
        {
          "internalType": "uint256",
          "name": "",
          "type": "uint256"
        }
      ],
      "name": "contacts",
      "outputs": [
        {
          "internalType": "uint256",
          "name": "id",
          "type": "uint256"
        },
        {
          "internalType": "string",
          "name": "name",
          "type": "string"
        },
        {
          "internalType": "string",
          "name": "phone",
          "type": "string"
        }
      ],
      "stateMutability": "view",
      "type": "function",
      "constant": true
    },
    {
      "inputs": [],
      "name": "count",
      "outputs": [
        {
          "internalType": "uint256",
          "name": "",
          "type": "uint256"
        }
      ],
      "stateMutability": "view",
      "type": "function",
      "constant": true
    },
    {
      "inputs": [
        {
          "internalType": "string",
          "name": "_name",
          "type": "string"
        },
        {
          "internalType": "string",
          "name": "_phone",
          "type": "string"
        }
      ],
      "name": "createContact",
      "outputs": [],
      "stateMutability": "nonpayable",
      "type": "function"
    }
  ],
  "bytecode": "0x60806040526000805534801561001457600080fd5b5061006d6040518060400160405280600c81526020016b41677573205072617975646960a01b8152506040518060400160405280600c81526020016b30383539363131343235353160a01b81525061007260201b60201c565b61026b565b600080549080610081836100e6565b9091555050604080516060810182526000805480835260208084018781528486018790529183526001908190529390912082518155905191929091908201906100ca90826101ac565b50604082015160028201906100df90826101ac565b5050505050565b60006001820161010657634e487b7160e01b600052601160045260246000fd5b5060010190565b634e487b7160e01b600052604160045260246000fd5b600181811c9082168061013757607f821691505b60208210810361015757634e487b7160e01b600052602260045260246000fd5b50919050565b601f8211156101a757600081815260208120601f850160051c810160208610156101845750805b601f850160051c820191505b818110156101a357828155600101610190565b5050505b505050565b81516001600160401b038111156101c5576101c561010d565b6101d9816101d38454610123565b8461015d565b602080601f83116001811461020e57600084156101f65750858301515b600019600386901b1c1916600185901b1785556101a3565b600085815260208120601f198616915b8281101561023d5788860151825594840194600190910190840161021e565b508582101561025b5787850151600019600388901b60f8161c191681555b5050505050600190811b01905550565b6105808061027a6000396000f3fe608060405234801561001057600080fd5b50600436106100415760003560e01c806306661abd146100465780633dce492014610062578063e0f478cb14610077575b600080fd5b61004f60005481565b6040519081526020015b60405180910390f35b6100756100703660046102e2565b610099565b005b61008a610085366004610346565b61010d565b604051610059939291906103a5565b6000805490806100a8836103da565b9091555050604080516060810182526000805480835260208084018781528486018790529183526001908190529390912082518155905191929091908201906100f1908261048a565b5060408201516002820190610106908261048a565b5050505050565b60016020819052600091825260409091208054918101805461012e90610401565b80601f016020809104026020016040519081016040528092919081815260200182805461015a90610401565b80156101a75780601f1061017c576101008083540402835291602001916101a7565b820191906000526020600020905b81548152906001019060200180831161018a57829003601f168201915b5050505050908060020180546101bc90610401565b80601f01602080910402602001604051908101604052809291908181526020018280546101e890610401565b80156102355780601f1061020a57610100808354040283529160200191610235565b820191906000526020600020905b81548152906001019060200180831161021857829003601f168201915b5050505050905083565b634e487b7160e01b600052604160045260246000fd5b600082601f83011261026657600080fd5b813567ffffffffffffffff808211156102815761028161023f565b604051601f8301601f19908116603f011681019082821181831017156102a9576102a961023f565b816040528381528660208588010111156102c257600080fd5b836020870160208301376000602085830101528094505050505092915050565b600080604083850312156102f557600080fd5b823567ffffffffffffffff8082111561030d57600080fd5b61031986838701610255565b9350602085013591508082111561032f57600080fd5b5061033c85828601610255565b9150509250929050565b60006020828403121561035857600080fd5b5035919050565b6000815180845260005b8181101561038557602081850181015186830182015201610369565b506000602082860101526020601f19601f83011685010191505092915050565b8381526060602082015260006103be606083018561035f565b82810360408401526103d0818561035f565b9695505050505050565b6000600182016103fa57634e487b7160e01b600052601160045260246000fd5b5060010190565b600181811c9082168061041557607f821691505b60208210810361043557634e487b7160e01b600052602260045260246000fd5b50919050565b601f82111561048557600081815260208120601f850160051c810160208610156104625750805b601f850160051c820191505b818110156104815782815560010161046e565b5050505b505050565b815167ffffffffffffffff8111156104a4576104a461023f565b6104b8816104b28454610401565b8461043b565b602080601f8311600181146104ed57600084156104d55750858301515b600019600386901b1c1916600185901b178555610481565b600085815260208120601f198616915b8281101561051c578886015182559484019460019091019084016104fd565b508582101561053a5787850151600019600388901b60f8161c191681555b5050505050600190811b0190555056fea26469706673582212204774220a88c84081b1202af81545d7d2fd91666e3650121ccad8938569b4eefa64736f6c63430008130033",
  "immutableReferences": {},
  "source": "//SPDX-License-Identifier: UNLICENSED\r\npragma solidity ^0.8;\r\n\r\ncontract Contacts {\r\n    uint public count = 0; //state variable\r\n\r\n    struct Contact {\r\n        uint id;\r\n        string name;\r\n        string phone;\r\n    }\r\n\r\n    constructor() public {\r\n        createContact('Agus Prayudi', '085961142551');\r\n    }\r\n\r\n    mapping(uint => Contact) public contacts;\r\n\r\n    function createContact(string memory _name, string memory _phone) public {\r\n        count++;\r\n        contacts[count] = Contact(count, _name, _phone);\r\n    }\r\n}",
  "sourcePath": "C:\\Users\\agusp\\OneDrive\\Documents\\learn_code\\blockchain\\contact_management\\src\\smartContract\\contracts\\Contacts.sol",
  "compiler": {
    "name": "solc",
    "version": "0.8.19+commit.7dd6d404.Emscripten.clang"
  },
  "schemaVersion": "3.4.12",
  "updatedAt": "2023-03-01T15:38:57.949Z",
  "networkType": "ethereum",
  "devdoc": {
    "kind": "dev",
    "methods": {},
    "version": 1
  },
  "userdoc": {
    "kind": "user",
    "methods": {},
    "version": 1
  }
}